:100000000C945D000C9485000C9485000C94850084
:100010000C9485000C9485000C9485000C9485004C
:100020000C9485000C9485000C9485000C9485003C
:100030000C9485000C9485000C9485000C9485002C
:100040000C94CD020C9485000C943D030C94170382
:100050000C9485000C9485000C9485000C9485000C
:100060000C9485000C94850000000008000201003B
:100070000003040700000000000000000000000072
:10008000250028002B0000000000240027002A0083
:10009000040404040404040402020202020203032E
:1000A0000303030301020408102040800102040836
:1000B00010200102040810206E0511241FBECFEF8E
:1000C000D8E0DEBFCDBF11E0A0E0B1E0ECE0F0E1B0
:1000D00002C005900D92A232B107D9F721E0A2E249
:1000E000B1E001C01D92A03DB207E1F710E0CDE5FF
:1000F000D0E004C02197FE010E94F907CC35D1075A
:10010000C9F70E946F030C9404080C94000090E05F
:10011000FC01EC55FF4F2491FC01E057FF4F849107
:10012000882399F090E0880F991FFC01EA57FF4F50
:10013000A591B491FC01E458FF4F859194918FB73C
:10014000F894EC91E22BEC938FBF089590E0FC01C2
:10015000E859FF4F3491FC01EC55FF4F2491FC010D
:10016000E057FF4FE491EE2309F43BC0332339F10C
:10017000333091F038F43130A9F0323001F584B5E4
:100180008F7D12C0373091F03830A1F03430B9F49F
:10019000809180008F7D03C0809180008F77809355
:1001A00080000DC084B58F7784BD09C08091B000F8
:1001B0008F7703C08091B0008F7D8093B000F0E016
:1001C000EE0FFF1FE458FF4FA591B4918FB7F8943D
:1001D000EC91611103C020952E2301C02E2B2C938E
:1001E0008FBF08958E3008F08E50877020910001E7
:1001F00090E4299F90011124822B80937C008091B0
:100200007A00806480937A0080917A0086FDFCCF2A
:10021000809178002091790090E0922B08953FB76B
:10022000F89480912F0190913001A0913101B0910B
:10023000320126B5A89B05C02F3F19F00196A11DDC
:10024000B11D3FBFBA2FA92F982F8827820F911D6C
:10025000A11DB11DBC01CD0142E0660F771F881FB3
:10026000991F4A95D1F708958F929F92AF92BF92AE
:10027000CF92DF92EF92FF926B017C010E940F01FF
:100280004B015C01C114D104E104F104F1F00E94BE
:100290000F01DC01CB0188199909AA09BB09883E25
:1002A0009340A105B10570F321E0C21AD108E1081D
:1002B000F10888EE880E83E0981EA11CB11CC114C1
:1002C000D104E104F10419F7DDCFFF90EF90DF9046
:1002D000CF90BF90AF909F908F900895CF92DF9274
:1002E000EF92FF920F931F93CF93DF936C017A01EC
:1002F0008B01C0E0D0E0CE15DF0589F0D8016D910B
:100300008D01D601ED91FC910190F081E02DC601A7
:100310000995892B11F47E0102C02196ECCFC7010B
:10032000DF91CF911F910F91FF90EF90DF90CF90D1
:100330000895089580E090E00895FC01538D448D68
:10034000252F30E0842F90E0821B930B541710F080
:10035000CF96089501970895FC01918D828D98178D
:1003600061F0828DDF01A80FB11D5D968C91928D99
:100370009F5F9F73928F90E008958FEF9FEF089596
:10038000FC01918D828D981731F0828DE80FF11D5F
:10039000858D90E008958FEF9FEF0895FC01918D7A
:1003A000228D892F90E0805C9F4F821B91098F7373
:1003B0009927089583E391E00E94CE0121E0892BE3
:1003C00009F420E0822F0895FC01848DDF01A80F3D
:1003D000B11DA35ABF4F2C91848D90E001968F736D
:1003E0009927848FA689B7892C93A089B1898C918C
:1003F00080648C93938D848D981306C00288F38952
:10040000E02D80818F7D80830895EF92FF920F937E
:100410001F93CF93DF93EC0181E0888F9B8D8C8DB0
:10042000981305C0E889F989808185FD24C0F62EDE
:100430000B8D10E00F5F1F4F0F731127E02E8C8D77
:10044000E8120CC00FB607FCFACFE889F989808161
:1004500085FFF5CFCE010E94E401F1CF8B8DFE0127
:10046000E80FF11DE35AFF4FF0820B8FEA89FB89F9
:100470008081806207C0EE89FF896083E889F989FD
:1004800080818064808381E090E0DF91CF911F9133
:100490000F91FF90EF900895CF93DF93EC01888D3B
:1004A0008823C9F0EA89FB89808185FD05C0A88978
:1004B000B9898C9186FD0FC00FB607FCF5CF8081FE
:1004C00085FFF2CFA889B9898C9185FFEDCFCE0148
:1004D0000E94E401E7CFDF91CF91089580E090E0A2
:1004E000892B29F00E94DA0181110C9400000895F3
:1004F000009769F0FC0101900020E9F73197AF0106
:10050000481B590BBC0183E391E00C946E0180E021
:1005100090E008958F929F92AF92BF920F931F9396
:10052000CF93DF93CDB7DEB7A1970FB6F894DEBFB8
:100530000FBECDBF19A2423008F44AE08E010F5D14
:100540001F4F842E912CA12CB12CA50194010E9447
:10055000D707E62FB901CA0101501109EA3014F496
:10056000E05D01C0E95CD801EC93232B242B252B03
:1005700061F7C8010E947802A1960FB6F894DEBF19
:100580000FBECDBFDF91CF911F910F91BF90AF9064
:100590009F908F9008950E94FF071F920F920FB6B1
:1005A0000F9211242F933F938F939F93AF93BF93F9
:1005B00080912B0190912C01A0912D01B0912E01E1
:1005C00030912A0123E0230F2D3720F40196A11D3D
:1005D000B11D05C026E8230F0296A11DB11D209371
:1005E0002A0180932B0190932C01A0932D01B093AD
:1005F0002E0180912F0190913001A0913101B09195
:1006000032010196A11DB11D80932F0190933001FD
:10061000A0933101B0933201BF91AF919F918F911F
:100620003F912F910F900FBE0F901F9018951F9222
:100630000F920FB60F9211242F933F934F935F9316
:100640006F937F938F939F93AF93BF93EF93FF939A
:1006500083E391E00E94E401FF91EF91BF91AF919C
:100660009F918F917F916F915F914F913F912F91CA
:100670000F900FBE0F901F9018951F920F920FB6FC
:100680000F9211242F938F939F93EF93FF93E091F9
:100690004301F09144018081E0914901F0914A01C8
:1006A00082FD12C0908180914C018F5F8F732091E9
:1006B0004D01821751F0E0914C01F0E0ED5CFE4FEE
:1006C000958F80934C0101C08081FF91EF919F91A4
:1006D0008F912F910F900FBE0F901F9018957894C7
:1006E00084B5826084BD84B5816084BD85B5826037
:1006F00085BD85B5816085BD80916E0081608093E8
:100700006E00109281008091810082608093810050
:100710008091810081608093810080918000816060
:10072000809380008091B10084608093B1008091BB
:10073000B00081608093B00080917A0084608093E3
:100740007A0080917A00826080937A0080917A00AA
:10075000816080937A0080917A00806880937A002B
:100760001092C100E0914301F091440182E0808346
:10077000E0913F01F09140011082E0914101F09140
:1007800042018FEC808310924B01E0914701F09180
:10079000480186E08083E0914501F0914601808127
:1007A00080618083E0914501F091460180818860FD
:1007B0008083E0914501F0914601808180688083CB
:1007C000E0914501F091460180818F7D808383E037
:1007D000809300018DE00E9487008CE00E948700DA
:1007E0008BE00E9487008AE00E94870080E00E94E0
:1007F000F2009093290180932801BC01990F880B86
:10080000990B0E94B00623EC35EF44E151E40E94BD
:100810000D066B017C014B015C0160932401709318
:100820002501809326019093270183E10E94F20025
:100830009093230180932201A7019601C701B6017D
:100840000E94D207882319F083E191E01AC02601A3
:100850003701E89477F82FEF3FEF4FE75FE7C301E9
:10086000B2010E94D20781110FC02FEF3FEF4FE777
:100870005FE7C301B2010E94080618162CF487E155
:1008800091E00E94780284C02FEF3FEF4FE75FE4D2
:10089000C701B6010E94600718161CF48BE191E0B5
:1008A000F0CF2FEF3FEF4FE75FECC701B6010E949B
:1008B000080687FDF3CF20E030E0A901C701B601AB
:1008C0000E94080687FF11C0E0913301F0913401C6
:1008D0000190F081E02D6DE283E391E009954601FE
:1008E0005701B7FAB094B7F8B0942AE037ED43EA6D
:1008F0005BE3C501B4010E949C054B015C010E94B1
:100900007F066B017C010E94AE069B01AC01C50114
:10091000B4010E949B054B015C014AE0C701B6018E
:100920000E948A02E0913301F09134010190F0813C
:10093000E02D6EE283E391E0099520E030E040E2B3
:1009400051E4C501B4010E9465074B015C010E949E
:100950007F066B01E12CF12C4AE0C701B6010E9431
:100960008A02C701B6010E94AE069B01AC01C50117
:10097000B4010E949B0520E030E040E251E40E9477
:1009800065070E947F0680E090E04AE00E948A02AC
:100990008FE191E00E947802C0902401D09025015F
:1009A000E0902601F090270120E030E040E251E4A1
:1009B000C701B6010E94080618169CF061E08AE0A3
:1009C0000E94A600C0902201D09023010D2C000CA3
:1009D000EE08FF08C701B6010E94340160E08AE01A
:1009E00074C020E030E040E251E4C701B6010E944B
:1009F00060071816ECF420E030E040EA51E4C7014B
:100A0000B6010E94080618169CF061E08BE00E9477
:100A1000A600C0902201D09023010D2C000CEE08FE
:100A2000FF08C701B6010E94340160E08BE04DC0B1
:100A300020E030E040EA51E4C701B6010E946007BF
:100A40001816ECF420E030E040EF51E4C701B601A5
:100A50000E94080618169CF061E08CE00E94A60037
:100A6000C0902201D09023010D2C000CEE08FF084D
:100A7000C701B6010E94340160E08CE026C020E08E
:100A800030E040EF51E4C701B6010E94600718163C
:100A900014F520E030E040E252E4C701B6010E94C4
:100AA00008061816C4F061E08DE00E94A600C09010
:100AB0002201D09023010D2C000CEE08FF08C70185
:100AC000B6010E94340160E08DE00E94A600C701DB
:100AD000B6010E9434010E946E0288CEE3E3F1E089
:100AE0001382128288EE93E0A0E0B0E084839583C5
:100AF000A683B78385E091E09183808385EC90E0C5
:100B00009587848784EC90E09787868780EC90E0D7
:100B1000918B808B81EC90E0938B828B82EC90E0C8
:100B2000958B848B86EC90E0978B868B118E128E42
:100B3000138E148E08955058BB27AA270E94B30520
:100B40000C9426070E94180738F00E941F0720F017
:100B500039F49F3F19F426F40C9415070EF4E09530
:100B6000E7FB0C940F07E92F0E94370758F3BA17D9
:100B7000620773078407950720F079F4A6F50C94B3
:100B800059070EF4E0950B2EBA2FA02D0B01B901D9
:100B900090010C01CA01A0011124FF27591B99F0F3
:100BA000593F50F4503E68F11A16F040A22F232FFF
:100BB000342F4427585FF3CF469537952795A7954F
:100BC000F0405395C9F77EF41F16BA0B620B730BF6
:100BD000840BBAF09150A1F0FF0FBB1F661F771F67
:100BE000881FC2F70EC0BA0F621F731F841F48F41C
:100BF000879577956795B795F7959E3F08F0B0CFA5
:100C00009395880F08F09927EE0F9795879508958B
:100C10000E94EB0608F481E008950E9421060C94DE
:100C200026070E941F0758F00E94180740F029F479
:100C30005F3F29F00C940F0751110C945A070C9444
:100C400015070E94370768F39923B1F3552391F3F1
:100C5000951B550BBB27AA2762177307840738F02B
:100C60009F5F5F4F220F331F441FAA1FA9F335D088
:100C70000E2E3AF0E0E832D091505040E695001C3C
:100C8000CAF72BD0FE2F29D0660F771F881FBB1FF6
:100C9000261737074807AB07B0E809F0BB0B802DD4
:100CA000BF01FF2793585F4F3AF09E3F510578F000
:100CB0000C940F070C945A075F3FE4F3983ED4F36B
:100CC000869577956795B795F7959F5FC9F7880FD4
:100CD000911D9695879597F90895E1E0660F771F26
:100CE000881FBB1F621773078407BA0720F0621BB7
:100CF000730B840BBA0BEE1F88F7E09508950E94E2
:100D00003F0788F09F5798F0B92F9927B751B0F057
:100D1000E1F0660F771F881F991F1AF0BA95C9F77F
:100D200014C0B13091F00E945907B1E008950C94BD
:100D30005907672F782F8827B85F39F0B93FCCF370
:100D4000869577956795B395D9F73EF490958095FC
:100D5000709561957F4F8F4F9F4F0895E89409C01C
:100D600097FB3EF490958095709561957F4F8F4FDE
:100D70009F4F9923A9F0F92F96E9BB279395F695F4
:100D8000879577956795B795F111F8CFFAF4BB0F72
:100D900011F460FF1BC06F5F7F4F8F4F9F4F16C0D6
:100DA000882311F096E911C0772321F09EE8872F60
:100DB000762F05C0662371F096E8862F70E060E01C
:100DC0002AF09A95660F771F881FDAF7880F969595
:100DD000879597F90895990F0008550FAA0BE0E839
:100DE000FEEF16161706E807F907C0F012161306ED
:100DF000E407F50798F0621B730B840B950B39F42D
:100E00000A2661F0232B242B252B21F408950A2692
:100E100009F4A140A6958FEF811D811D089597F9D2
:100E20009F6780E870E060E008959FEF80EC089590
:100E300000240A94161617061806090608950024B9
:100E40000A9412161306140605060895092E039433
:100E5000000C11F4882352F0BB0F40F4BF2B11F4A7
:100E600060FF04C06F5F7F4F8F4F9F4F089557FD06
:100E70009058440F551F59F05F3F71F04795880F08
:100E800097FB991F61F09F3F79F08795089512169F
:100E900013061406551FF2CF4695F1DF08C016164B
:100EA00017061806991FF1CF8695710561050894FC
:100EB0000895E894BB2766277727CB0197F9089513
:100EC0000E94EB0608F48FEF08950E9478070C94B7
:100ED00026070E94180738F00E941F0720F095236C
:100EE00011F00C940F070C94150711240C945A0759
:100EF0000E94370770F3959FC1F3950F50E0551F7F
:100F0000629FF001729FBB27F00DB11D639FAA275E
:100F1000F00DB11DAA1F649F6627B00DA11D661FAD
:100F2000829F2227B00DA11D621F739FB00DA11DCE
:100F3000621F839FA00D611D221F749F3327A00D88
:100F4000611D231F849F600D211D822F762F6A2F24
:100F500011249F5750409AF0F1F088234AF0EE0F89
:100F6000FF1FBB1F661F771F881F91505040A9F7B6
:100F70009E3F510580F00C940F070C945A075F3F79
:100F8000E4F3983ED4F3869577956795B795F795F2
:100F9000E7959F5FC1F7FE2B880F911D969587956A
:100FA00097F908950E94EB06880B990B0895A1E22A
:100FB0001A2EAA1BBB1BFD010DC0AA1FBB1FEE1FD3
:100FC000FF1FA217B307E407F50720F0A21BB30B1E
:100FD000E40BF50B661F771F881F991F1A9469F79A
:100FE00060957095809590959B01AC01BD01CF01F6
:100FF0000895EE0FFF1F0590F491E02D099481E014
:0C10000090E0F8940C940408F894FFCFE2
:10100C00010000000005026E019D014C02CE01ACF6
:10101C0001C0016E616E00696E66006F7666000D30
:02102C000A00B8
:00000001FF
