:100000000C945D000C9485000C9485000C94850084
:100010000C9485000C9485000C9485000C9485004C
:100020000C9485000C9485000C9485000C9485003C
:100030000C9485000C9485000C9485000C9485002C
:100040000C94AC020C9485000C941C030C94F602E6
:100050000C9485000C9485000C9485000C9485000C
:100060000C9485000C94850000000008000201003B
:100070000003040700000000000000000000000072
:10008000250028002B0000000000240027002A0083
:10009000040404040404040402020202020203032E
:1000A0000303030301020408102040800102040836
:1000B00010200102040810206B0411241FBECFEF92
:1000C000D8E0DEBFCDBF11E0A0E0B1E0EAEFFBE099
:1000D00002C005900D92A631B107D9F721E0A6E143
:1000E000B1E001C01D92A03CB207E1F710E0CDE500
:1000F000D0E004C02197FE010E94F005CC35D10765
:10010000C9F70E944E030C94FB050C94000090E08C
:10011000FC01EC55FF4F2491FC01E057FF4F849107
:10012000882399F090E0880F991FFC01EA57FF4F50
:10013000A591B491FC01E458FF4F859194918FB73C
:10014000F894EC91E22BEC938FBF089590E0FC01C2
:10015000E859FF4F3491FC01EC55FF4F2491FC010D
:10016000E057FF4FE491EE2309F43BC0332339F10C
:10017000333091F038F43130A9F0323001F584B5E4
:100180008F7D12C0373091F03830A1F03430B9F49F
:10019000809180008F7D03C0809180008F77809355
:1001A00080000DC084B58F7784BD09C08091B000F8
:1001B0008F7703C08091B0008F7D8093B000F0E016
:1001C000EE0FFF1FE458FF4FA591B4918FB7F8943D
:1001D000EC91611103C020952E2301C02E2B2C938E
:1001E0008FBF08953FB7F89480911F01909120012F
:1001F000A0912101B091220126B5A89B05C02F3FF7
:1002000019F00196A11DB11D3FBFBA2FA92F982F3C
:100210008827820F911DA11DB11DBC01CD0142E0B7
:10022000660F771F881F991F4A95D1F708958F92FF
:100230009F92AF92BF92CF92DF92EF92FF920E9475
:10024000F2004B015C0188EEC82E83E0D82EE12C31
:10025000F12C0E94F200DC01CB0188199909AA094E
:10026000BB09883E9340A105B10558F021E0C21AB0
:10027000D108E108F10888EE880E83E0981EA11CE1
:10028000B11CC114D104E104F10419F7FF90EF90FF
:10029000DF90CF90BF90AF909F908F900895CF92B6
:1002A000DF92EF92FF920F931F93CF93DF936C0136
:1002B0007A018B01C0E0D0E0CE15DF0589F0D801CE
:1002C0006D918D01D601ED91FC910190F081E02DB1
:1002D000C6010995892B11F47E0102C02196ECCF4D
:1002E000C701DF91CF911F910F91FF90EF90DF90A9
:1002F000CF900895089580E090E00895FC01538D1B
:10030000448D252F30E0842F90E0821B930B5417EF
:1003100010F0CF96089501970895FC01918D828D7C
:10032000981761F0828DDF01A80FB11D5D968C9149
:10033000928D9F5F9F73928F90E008958FEF9FEF54
:100340000895FC01918D828D981731F0828DE80F10
:10035000F11D858D90E008958FEF9FEF0895FC01CA
:10036000918D228D892F90E0805C9F4F821B910997
:100370008F739927089583E291E00E94AF0121E0F5
:10038000892B09F420E0822F0895FC01848DDF0180
:10039000A80FB11DA35ABF4F2C91848D90E00196F8
:1003A0008F739927848FA689B7892C93A089B189E7
:1003B0008C9180648C93938D848D981306C00288F1
:1003C000F389E02D80818F7D80830895EF92FF92E5
:1003D0000F931F93CF93DF93EC0181E0888F9B8D68
:1003E0008C8D981305C0E889F989808185FD24C02A
:1003F000F62E0B8D10E00F5F1F4F0F731127E02EAD
:100400008C8DE8120CC00FB607FCFACFE889F98989
:10041000808185FFF5CFCE010E94C501F1CF8B8D84
:10042000FE01E80FF11DE35AFF4FF0820B8FEA89BE
:10043000FB898081806207C0EE89FF896083E8893B
:10044000F98980818064808381E090E0DF91CF91A1
:100450001F910F91FF90EF900895CF93DF93EC01E0
:10046000888D8823C9F0EA89FB89808185FD05C0D4
:10047000A889B9898C9186FD0FC00FB607FCF5CF0E
:10048000808185FFF2CFA889B9898C9185FFEDCF56
:10049000CE010E94C501E7CFDF91CF91089580E0A2
:1004A00090E0892B29F00E94BB0181110C9400007F
:1004B00008958F929F92AF92BF920F931F93CF9305
:1004C000DF93CDB7DEB7A1970FB6F894DEBF0FBEAE
:1004D000CDBF19A2423008F44AE08E010F5D1F4FD4
:1004E000842E912CA12CB12CA50194010E94CE0543
:1004F000E62FB901CA0101501109EA3014F4E05D98
:1005000001C0E95CD801EC93232B242B252B61F748
:100510000115110571F0F80101900020E9F73197FC
:10052000AF01401B510BB80183E291E00E944F01E3
:1005300002C080E090E0A1960FB6F894DEBF0FBE37
:10054000CDBFDF91CF911F910F91BF90AF909F9042
:100550008F9008950E94F6051F920F920FB60F928A
:1005600011242F933F938F939F93AF93BF938091C9
:100570001B0190911C01A0911D01B0911E013091B1
:100580001A0123E0230F2D3720F40196A11DB11D80
:1005900005C026E8230F0296A11DB11D20931A0164
:1005A00080931B0190931C01A0931D01B0931E0129
:1005B00080911F0190912001A0912101B091220111
:1005C0000196A11DB11D80931F0190932001A0935E
:1005D0002101B0932201BF91AF919F918F913F91E3
:1005E0002F910F900FBE0F901F9018951F920F9292
:1005F0000FB60F9211242F933F934F935F936F93F6
:100600007F938F939F93AF93BF93EF93FF9383E277
:1006100091E00E94C501FF91EF91BF91AF919F9131
:100620008F917F916F915F914F913F912F910F909B
:100630000FBE0F901F9018951F920F920FB60F923A
:1006400011242F938F939F93EF93FF93E0913301A6
:10065000F09134018081E0913901F0913A0182FDFD
:1006600012C0908180913C018F5F8F7320913D017A
:10067000821751F0E0913C01F0E0ED5DFE4F958F67
:1006800080933C0101C08081FF91EF919F918F91F8
:100690002F910F900FBE0F901F901895789484B5EE
:1006A000826084BD84B5816084BD85B5826085BD6E
:1006B00085B5816085BD80916E00816080936E00FC
:1006C00010928100809181008260809381008091EE
:1006D000810081608093810080918000816080939F
:1006E00080008091B10084608093B1008091B0005F
:1006F00081608093B00080917A00846080937A005A
:1007000080917A00826080937A0080917A00816083
:1007100080937A0080917A00806880937A001092AA
:10072000C100E0913301F091340182E08083E091D7
:100730002F01F09130011082E0913101F0913201EE
:100740008FEC808310923B01E0913701F0913801EA
:1007500086E08083E0913501F091360180818061EF
:100760008083E0913501F09136018081886080833B
:10077000E0913501F0913601808180688083E091BD
:100780003501F091360180818F7D808383E08093F5
:1007900000018DE00E9487008CE00E9487008BE0C2
:1007A0000E9487008AE00E9487008091000120E477
:1007B000829FC001112480937C0080917A00806424
:1007C00080937A0080917A0086FDFCCF609178005A
:1007D0008091790070E0782B709319016093180173
:1007E000072E000C880B990B0E94420523EC35EF75
:1007F00044E151E40E9498040E940A057093170195
:10080000609316016B01770FEE08FF08F7FE14C026
:10081000E0912301F09124010190F081E02D6DE23F
:1008200083E291E0099566277727CB016C197D0952
:100830008E099F094AE003C04AE0C701B6010E9441
:10084000590242E050E063E171E083E291E00E94EE
:100850004F010E94170180911601909117018B3072
:1008600091054CF461E08AE00E94A6000E94170105
:1008700060E08AE029C09C012B5031092A30310503
:1008800048F461E08BE00E94A6000E94170160E03E
:100890008BE01AC09C01255131092A30310548F4FA
:1008A00061E08CE00E94A6000E94170160E08CE0ED
:1008B0000BC04F970A9760F461E08DE00E94A6009C
:1008C0000E94170160E08DE00E94A6000E941701BF
:1008D0000E944F026ACFE3E2F1E01382128288EEB7
:1008E00093E0A0E0B0E084839583A683B78385E09E
:1008F00091E09183808385EC90E09587848784ECF8
:1009000090E09787868780EC90E0918B808B81ECDC
:1009100090E0938B828B82EC90E0958B848B86ECBD
:1009200090E0978B868B118E128E138E148E089505
:100930000E94AC040C9494050E948D0558F00E940E
:10094000860540F029F45F3F29F00C947D05511194
:100950000C94C8050C9483050E94A50568F399239F
:10096000B1F3552391F3951B550BBB27AA276217AB
:100970007307840738F09F5F5F4F220F331F441FB8
:10098000AA1FA9F335D00E2E3AF0E0E832D09150EC
:100990005040E695001CCAF72BD0FE2F29D0660FD9
:1009A000771F881FBB1F261737074807AB07B0E81C
:1009B00009F0BB0B802DBF01FF2793585F4F3AF022
:1009C0009E3F510578F00C947D050C94C8055F3F5F
:1009D000E4F3983ED4F3869577956795B795F795A8
:1009E0009F5FC9F7880F911D9695879597F9089590
:1009F000E1E0660F771F881FBB1F6217730784072C
:100A0000BA0720F0621B730B840BBA0BEE1F88F73A
:100A1000E09508950E9411056894B1110C94C805E1
:100A200008950E94AD0588F09F5798F0B92F992737
:100A3000B751B0F0E1F0660F771F881F991F1AF0C9
:100A4000BA95C9F714C0B13091F00E94C705B1E062
:100A500008950C94C705672F782F8827B85F39F061
:100A6000B93FCCF3869577956795B395D9F73EF462
:100A700090958095709561957F4F8F4F9F4F08950A
:100A8000E89409C097FB3EF4909580957095619528
:100A90007F4F8F4F9F4F9923A9F0F92F96E9BB27DE
:100AA0009395F695879577956795B795F111F8CF5A
:100AB000FAF4BB0F11F460FF1BC06F5F7F4F8F4FC5
:100AC0009F4F16C0882311F096E911C0772321F0BB
:100AD0009EE8872F762F05C0662371F096E8862F53
:100AE00070E060E02AF09A95660F771F881FDAF7AA
:100AF000880F9695879597F9089597F99F6780E8ED
:100B000070E060E008959FEF80EC089500240A945F
:100B10001616170618060906089500240A941216D8
:100B20001306140605060895092E0394000C11F40B
:100B3000882352F0BB0F40F4BF2B11F460FF04C0B8
:100B40006F5F7F4F8F4F9F4F089557FD9058440F11
:100B5000551F59F05F3F71F04795880F97FB991F1C
:100B600061F09F3F79F087950895121613061406D9
:100B7000551FF2CF4695F1DF08C016161706180666
:100B8000991FF1CF86957105610508940895E89441
:100B9000BB2766277727CB0197F90895A1E21A2E84
:100BA000AA1BBB1BFD010DC0AA1FBB1FEE1FFF1F11
:100BB000A217B307E407F50720F0A21BB30BE40B61
:100BC000F50B661F771F881F991F1A9469F76095A8
:100BD0007095809590959B01AC01BD01CF01089562
:100BE000EE0FFF1F0590F491E02D099481E090E055
:0A0BF000F8940C94FB05F894FFCF75
:100BFA000100000000E6014F017E012D02AF018DC8
:060C0A0001A1010D0A002A
:00000001FF
