:100000000C9462000C948A000C948A000C948A0070
:100010000C948A000C948A000C948A000C948A0038
:100020000C948A000C948A000C948A000C948A0028
:100030000C948A000C948A000C948A000C948A0018
:100040000C94FC020C948A000C946C030C944603F0
:100050000C948A000C948A000C948A000C948A00F8
:100060000C948A000C948A000000000023002600F3
:10007000290000000000240027002A0000000000E2
:10008000250028002B0004040404040404040202D4
:100090000202020203030303030301020408102007
:1000A0004080010204081020010204081020000012
:1000B0000008000201000003040700000000000027
:1000C0000000D40511241FBECFEFD8E0DEBFCDBFA6
:1000D00011E0A0E0B1E0E8EDF0E102C005900D9282
:1000E000A232B107D9F721E0A2E2B1E001C01D922E
:1000F000A23DB207E1F710E0C2E6D0E004C02197CC
:10010000FE010E945F08C136D107C9F70E949E0315
:100110000C946A080C940000833081F028F481303C
:1001200099F08230A1F008958730A9F08830B9F0B5
:100130008430D1F4809180008F7D03C08091800055
:100140008F7780938000089584B58F7702C084B53F
:100150008F7D84BD08958091B0008F7703C080911A
:10016000B0008F7D8093B00008951F93CF93DF93ED
:10017000282F30E0F901E255FF4F8491F901E6564E
:10018000FF4FD491F901EA57FF4FC491CC23C9F036
:10019000162F81110E948C00EC2FF0E0EE0FFF1F54
:1001A000E458FF4FA591B4918FB7F894111105C091
:1001B0009C91ED2FE095E92302C0EC91ED2BEC939F
:1001C0008FBFDF91CF911F910895CF93DF9390E080
:1001D000FC01E656FF4F2491FC01EA57FF4F849142
:1001E000882361F190E0880F991FFC01EE58FF4FC2
:1001F000C591D491FC01E458FF4FA591B4916111D0
:1002000009C09FB7F8948881209582238883EC9158
:100210002E230BC0623061F49FB7F8943881822F8F
:10022000809583238883EC912E2B2C939FBF06C04F
:100230008FB7F894E8812E2B28838FBFDF91CF9161
:1002400008958E3008F08E5087702091000190E460
:10025000299F90011124822B80937C0080917A0049
:10026000806480937A0080917A0086FDFCCF809133
:1002700078002091790090E0922B08953FB7F89490
:100280008091310190913201A0913301B0913401FC
:1002900026B5A89B05C02F3F19F00196A11DB11DE1
:1002A0003FBFBA2FA92F982F8827820F911DA11D1C
:1002B000B11DBC01CD0142E0660F771F881F991F59
:1002C0004A95D1F708958F929F92AF92BF92CF92A5
:1002D000DF92EF92FF926B017C010E943E014B0185
:1002E0005C01C114D104E104F104F1F00E943E016B
:1002F000DC01CB0188199909AA09BB09883E934002
:10030000A105B10570F321E0C21AD108E108F10896
:1003100088EE880E83E0981EA11CB11CC114D10484
:10032000E104F10419F7DDCFFF90EF90DF90CF905B
:10033000BF90AF909F908F900895CF92DF92EF92F1
:10034000FF920F931F93CF93DF936C017A018B0180
:10035000C0E0D0E0CE15DF0589F0D8016D918D01A8
:10036000D601ED91FC910190F081E02DC601099537
:10037000892B11F47E0102C02196ECCFC701DF91D9
:10038000CF911F910F91FF90EF90DF90CF90089544
:10039000089580E090E00895FC01538D448D252F51
:1003A00030E0842F90E0821B930B541710F0CF960F
:1003B000089501970895FC01918D828D981761F041
:1003C000828DDF01A80FB11D5D968C91928D9F5F8C
:1003D0009F73928F90E008958FEF9FEF0895FC0137
:1003E000918D828D981731F0828DE80FF11D858DEA
:1003F00090E008958FEF9FEF0895FC01918D228D7D
:10040000892F90E0805C9F4F821B91098F73992701
:10041000089585E391E00E94FD0121E0892B09F414
:1004200020E0822F0895FC01848DDF01A80FB11D0B
:10043000A35ABF4F2C91848D90E001968F7399271A
:10044000848FA689B7892C93A089B1898C91806407
:100450008C93938D848D981306C00288F389E02DC8
:1004600080818F7D80830895EF92FF920F931F9379
:10047000CF93DF93EC0181E0888F9B8D8C8D981357
:1004800005C0E889F989808185FD24C0F62E0B8D91
:1004900010E00F5F1F4F0F731127E02E8C8DE812B5
:1004A0000CC00FB607FCFACFE889F989808185FF77
:1004B000F5CFCE010E941302F1CF8B8DFE01E80F24
:1004C000F11DE35AFF4FF0820B8FEA89FB8980818F
:1004D000806207C0EE89FF896083E889F98980819D
:1004E0008064808381E090E0DF91CF911F910F9134
:1004F000FF90EF900895CF93DF93EC01888D8823D0
:10050000C9F0EA89FB89808185FD05C0A889B98980
:100510008C9186FD0FC00FB607FCF5CF808185FF5B
:10052000F2CFA889B9898C9185FFEDCFCE010E94C9
:100530001302E7CFDF91CF91089580E090E0892BFF
:1005400029F00E94090281110C940000089500977F
:1005500069F0FC0101900020E9F73197AF01481BD9
:10056000590BBC0185E391E00C949D0180E090E083
:1005700008958F929F92AF92BF920F931F93CF9344
:10058000DF93CDB7DEB7A1970FB6F894DEBF0FBEED
:10059000CDBF19A2423008F44AE08E010F5D1F4F13
:1005A000842E912CA12CB12CA50194010E943D0810
:1005B000E62FB901CA0101501109EA3014F4E05DD7
:1005C00001C0E95CD801EC93232B242B252B61F788
:1005D000C8010E94A702A1960FB6F894DEBF0FBE15
:1005E000CDBFDF91CF911F910F91BF90AF909F90A2
:1005F0008F9008950E9465081F920F920FB60F9278
:1006000011242F933F938F939F93AF93BF93809128
:100610002D0190912E01A0912F01B09130013091C8
:100620002C0123E0230F2D3720F40196A11DB11DCD
:1006300005C026E8230F0296A11DB11D20932C01B1
:1006400080932D0190932E01A0932F01B093300140
:100650008091310190913201A0913301B091340128
:100660000196A11DB11D8093310190933201A09399
:100670003301B0933401BF91AF919F918F913F911E
:100680002F910F900FBE0F901F9018951F920F92F1
:100690000FB60F9211242F933F934F935F936F9355
:1006A0007F938F939F93AF93BF93EF93FF9385E3D4
:1006B00091E00E941302FF91EF91BF91AF919F9142
:1006C0008F917F916F915F914F913F912F910F90FB
:1006D0000FBE0F901F9018951F920F920FB60F929A
:1006E00011242F938F939F93EF93FF93E0914501F4
:1006F000F09146018081E0914B01F0914C0182FD27
:1007000012C0908180914E018F5F8F7320914F01B5
:10071000821751F0E0914E01F0E0EB5CFE4F958FB7
:1007200080934E0101C08081FF91EF919F918F9145
:100730002F910F900FBE0F901F901895789484B54D
:10074000826084BD84B5816084BD85B5826085BDCD
:1007500085B5816085BD80916E00816080936E005B
:10076000109281008091810082608093810080914D
:1007700081008160809381008091800081608093FE
:1007800080008091B10084608093B1008091B000BE
:1007900081608093B00080917A00846080937A00B9
:1007A00080917A00826080937A0080917A008160E3
:1007B00080937A0080917A00806880937A0010920A
:1007C000C100E0914501F091460182E08083E09113
:1007D0004101F09142011082E0914301F091440106
:1007E0008FEC808310924D01E0914901F0914A0114
:1007F00086E08083E0914701F0914801808180612B
:100800008083E0914701F091480180818860808376
:10081000E0914701F0914801808180688083E091F8
:100820004701F091480180818F7D808383E0809330
:10083000000161E08DE00E94E50061E08CE00E9433
:10084000E50061E08BE00E94E50061E08AE00E9443
:10085000E50060E088E00E94E50096EB292E90E03C
:10086000392E02EA10E0CEE8D0E0F1018491F801DF
:10087000E490FE01F490FF2091F081110E948C0021
:10088000EF2DF0E0EE0FFF1FE859FF4FA591B49157
:100890008C91E82291E080E021F490E002C090E0A9
:1008A00080E090932A0180932B0180E00E94210137
:1008B0009093290180932801BC01990F880B990B13
:1008C0000E94160723EC35EF44E151E40E947306C1
:1008D0006B017C014B015C01609324017093250145
:1008E000809326019093270183E10E942101909338
:1008F000230180932201A7019601C701B6010E943E
:100900003808882319F083E191E01AC026013701E5
:10091000E89477F82FEF3FEF4FE75FE7C301B201AD
:100920000E94380881110FC02FEF3FEF4FE75FE7BC
:10093000C301B2010E946E0618162CF487E191E003
:100940000E94A70284C02FEF3FEF4FE75FE4C7018B
:10095000B6010E94C60718161CF48BE191E0F0CF97
:100960002FEF3FEF4FE75FECC701B6010E946E0625
:1009700087FDF3CF20E030E0A901C701B6010E9456
:100980006E0687FF11C0E0913501F09136010190AC
:10099000F081E02D6DE285E391E009954601570174
:1009A000B7FAB094B7F8B0942AE037ED43EA5BE3C6
:1009B000C501B4010E9402064B015C010E94E506DC
:1009C0006B017C010E9414079B01AC01C501B401BD
:1009D0000E9401064B015C014AE0C701B6010E947A
:1009E000B902E0913501F09136010190F081E02DDE
:1009F0006EE285E391E0099520E030E040E251E4C9
:100A0000C501B4010E94CB074B015C010E94E506C1
:100A10006B01E12CF12C4AE0C701B6010E94B9023A
:100A2000C701B6010E9414079B01AC01C501B401C6
:100A30000E94010620E030E040E251E40E94CB0732
:100A40000E94E50680E090E04AE00E94B9028FE152
:100A500091E00E94A70280912A0190912B010197B9
:100A600009F09FC0C0902401D0902501E09026019C
:100A7000F090270120E030E040E251E4C701B601E8
:100A80000E946E0618169CF061E08AE00E94B50094
:100A9000C0902201D09023010D2C000CEE08FF081D
:100AA000C701B6010E94630160E08AE074C020E0E3
:100AB00030E040E251E4C701B6010E94C6071816B3
:100AC000ECF420E030E040EA51E4C701B6010E94B6
:100AD0006E0618169CF061E08BE00E94B500C09095
:100AE0002201D09023010D2C000CEE08FF08C70155
:100AF000B6010E94630160E08BE04DC020E030E071
:100B000040EA51E4C701B6010E94C6071816ECF48A
:100B100020E030E040EF51E4C701B6010E946E06CC
:100B200018169CF061E08CE00E94B500C090220194
:100B3000D09023010D2C000CEE08FF08C701B60170
:100B40000E94630160E08CE026C020E030E040EFCE
:100B500051E4C701B6010E94C607181614F520E03B
:100B600030E040E252E4C701B6010E946E0618165A
:100B7000C4F061E08DE00E94B500C0902201D090E9
:100B800023010D2C000CEE08FF08C701B6010E94DE
:100B9000630160E08DE00E94B500C701B6010E94CC
:100BA00063010E949D0261CEE5E3F1E013821282AF
:100BB00088EE93E0A0E0B0E084839583A683B783BA
:100BC00085E091E09183808385EC90E09587848730
:100BD00084EC90E09787868780EC90E0918B808B07
:100BE00081EC90E0938B828B82EC90E0958B848BF0
:100BF00086EC90E0978B868B118E128E138E148E5E
:100C000008955058BB27AA270E9419060C948C07F8
:100C10000E947E0738F00E94850720F039F49F3F3C
:100C200019F426F40C947B070EF4E095E7FB0C9482
:100C30007507E92F0E949D0758F3BA1762077307DB
:100C40008407950720F079F4A6F50C94BF070EF4FD
:100C5000E0950B2EBA2FA02D0B01B90190010C01CC
:100C6000CA01A0011124FF27591B99F0593F50F4E4
:100C7000503E68F11A16F040A22F232F342F44273C
:100C8000585FF3CF469537952795A795F040539534
:100C9000C9F77EF41F16BA0B620B730B840BBAF004
:100CA0009150A1F0FF0FBB1F661F771F881FC2F76F
:100CB0000EC0BA0F621F731F841F48F48795779583
:100CC0006795B795F7959E3F08F0B0CF9395880F3D
:100CD00008F09927EE0F9795879508950E94510780
:100CE00008F481E008950E9487060C948C070E9406
:100CF000850758F00E947E0740F029F45F3F29F0F5
:100D00000C94750751110C94C0070C947B070E943A
:100D10009D0768F39923B1F3552391F3951B550B68
:100D2000BB27AA2762177307840738F09F5F5F4FBE
:100D3000220F331F441FAA1FA9F335D00E2E3AF0FD
:100D4000E0E832D091505040E695001CCAF72BD015
:100D5000FE2F29D0660F771F881FBB1F2617370766
:100D60004807AB07B0E809F0BB0B802DBF01FF2798
:100D700093585F4F3AF09E3F510578F00C947507F9
:100D80000C94C0075F3FE4F3983ED4F386957795C3
:100D90006795B795F7959F5FC9F7880F911D969551
:100DA000879597F90895E1E0660F771F881FBB1FAD
:100DB000621773078407BA0720F0621B730B840B5A
:100DC000BA0BEE1F88F7E09508950E94A50788F0FA
:100DD0009F5798F0B92F9927B751B0F0E1F0660FFF
:100DE000771F881F991F1AF0BA95C9F714C0B13040
:100DF00091F00E94BF07B1E008950C94BF07672FE0
:100E0000782F8827B85F39F0B93FCCF3869577956E
:100E10006795B395D9F73EF4909580957095619557
:100E20007F4F8F4F9F4F0895E89409C097FB3EF482
:100E300090958095709561957F4F8F4F9F4F992327
:100E4000A9F0F92F96E9BB279395F69587957795A5
:100E50006795B795F111F8CFFAF4BB0F11F460FF65
:100E60001BC06F5F7F4F8F4F9F4F16C0882311F0BD
:100E700096E911C0772321F09EE8872F762F05C0D1
:100E8000662371F096E8862F70E060E02AF09A956C
:100E9000660F771F881FDAF7880F9695879597F961
:100EA0000895990F0008550FAA0BE0E8FEEF1616FB
:100EB0001706E807F907C0F012161306E407F5074E
:100EC00098F0621B730B840B950B39F40A2661F0C2
:100ED000232B242B252B21F408950A2609F4A14065
:100EE000A6958FEF811D811D089597F99F6780E872
:100EF00070E060E008959FEF80EC089500240A946C
:100F00001616170618060906089500240A941216E4
:100F10001306140605060895092E0394000C11F417
:100F2000882352F0BB0F40F4BF2B11F460FF04C0C4
:100F30006F5F7F4F8F4F9F4F089557FD9058440F1D
:100F4000551F59F05F3F71F04795880F97FB991F28
:100F500061F09F3F79F087950895121613061406E5
:100F6000551FF2CF4695F1DF08C016161706180672
:100F7000991FF1CF86957105610508940895E8944D
:100F8000BB2766277727CB0197F908950E94510761
:100F900008F48FEF08950E94DE070C948C070E94DE
:100FA0007E0738F00E94850720F0952311F00C94FD
:100FB00075070C947B0711240C94C0070E949D07B1
:100FC00070F3959FC1F3950F50E0551F629FF0019C
:100FD000729FBB27F00DB11D639FAA27F00DB11DB5
:100FE000AA1F649F6627B00DA11D661F829F22273E
:100FF000B00DA11D621F739FB00DA11D621F839FC5
:10100000A00D611D221F749F3327A00D611D231F9A
:10101000849F600D211D822F762F6A2F11249F57E8
:1010200050409AF0F1F088234AF0EE0FFF1FBB1FEB
:10103000661F771F881F91505040A9F79E3F5105AA
:1010400080F00C9475070C94C0075F3FE4F3983E62
:10105000D4F3869577956795B795F795E7959F5F54
:10106000C1F7FE2B880F911D9695879597F90895E6
:101070000E945107880B990B0895A1E21A2EAA1B12
:10108000BB1BFD010DC0AA1FBB1FEE1FFF1FA21738
:10109000B307E407F50720F0A21BB30BE40BF50B35
:1010A000661F771F881F991F1A9469F760957095BE
:1010B000809590959B01AC01BD01CF010895EE0F85
:1010C000FF1F0590F491E02D099481E090E0F894E1
:0810D0000C946A08F894FFCFAC
:1010D800010000000034029D01CC017B02FD01DB10
:1010E80001EF016E616E00696E66006F7666000D35
:0210F8000A00EC
:00000001FF
